:020000040000fa
:080000000002040000000000f2
:020000040000fa
:040008000e050000e1
:020000040000fa
:04000c000e050000dd
:020000040000fa
:040010000e050000d9
:020000040000fa
:040014000e050000d5
:020000040000fa
:040018000e050000d1
:020000040000fa
:04001c000e050000cd
:020000040000fa
:040020000e050000c9
:020000040000fa
:040024000e050000c5
:020000040000fa
:040028000e050000c1
:020000040000fa
:04002c000e050000bd
:020000040000fa
:040030000e050000b9
:020000040000fa
:040034000e050000b5
:020000040000fa
:040038000e050000b1
:020000040000fa
:04003c000e050000ad
:020000040000fa
:040040000e050000a9
:020000040000fa
:04004400d4020000e2
:020000040000fa
:040048000e050000a1
:020000040000fa
:04004c000e0500009d
:020000040000fa
:040050000e05000099
:020000040000fa
:040054009a0300000b
:020000040000fa
:040058004c03000055
:020000040000fa
:04005c000e0500008d
:020000040000fa
:040060000e05000089
:020000040000fa
:040064000e05000085
:020000040000fa
:040068000e05000081
:020000040000fa
:04006c000e0500007d
:020000040000fa
:040070000e05000079
:020000040000fa
:040074000e05000075
:020000040000fa
:040078000e05000071
:020000040000fa
:04007c000e0500006d
:020000040000fa
:040080000e05000069
:020000040000fa
:040084000e05000065
:020000040000fa
:040088000e05000061
:020000040000fa
:04008c000e0500005d
:020000040000fa
:040090000e05000059
:020000040000fa
:040094000e05000055
:020000040000fa
:040098000e05000051
:020000040000fa
:04009c000e0500004d
:020000040000fa
:0400a0000e05000049
:020000040000fa
:0400a4000e05000045
:020000040000fa
:0400a8000e05000041
:020000040000fa
:0400ac000e0500003d
:020000040000fa
:0400b0000e05000039
:020000040000fa
:0400b4000e05000035
:020000040000fa
:0400b8000e05000031
:020000040000fa
:0400bc000e0500002d
:020000040000fa
:0400c0000e05000029
:020000040000fa
:0400c4000e05000025
:020000040000fa
:0400c8000e05000021
:020000040000fa
:0400cc000e0500001d
:020000040000fa
:0400d0000e05000019
:020000040000fa
:0400d4000e05000015
:020000040000fa
:0400d8000e05000011
:020000040000fa
:0400dc000e0500000d
:020000040000fa
:0400e0000e05000009
:020000040000fa
:0400e4000e05000005
:020000040000fa
:0400e8000e05000001
:020000040000fa
:0400ec000e050000fd
:020000040000fa
:0400f0000e050000f9
:020000040000fa
:0400f4000e050000f5
:020000040000fa
:0400f8000e050000f1
:020000040000fa
:0400fc000e050000ed
:020000040000fa
:040100000e050000e8
:020000040000fa
:040104000e050000e4
:020000040000fa
:040108000e050000e0
:020000040000fa
:04010c000e050000dc
:020000040000fa
:040110000e050000d8
:020000040000fa
:040114000e050000d4
:020000040000fa
:040118000e050000d0
:020000040000fa
:04011c000e050000cc
:020000040000fa
:040120000e050000c8
:020000040000fa
:040124000e050000c4
:020000040000fa
:040128000e050000c0
:020000040000fa
:04012c00f4030000d8
:020000040000fa
:040130000e050000b8
:020000040000fa
:040134000e050000b4
:020000040000fa
:040138000e050000b0
:020000040000fa
:04013c000e050000ac
:020000040000fa
:040140000e050000a8
:020000040000fa
:040144000e050000a4
:020000040000fa
:040148000e050000a0
:020000040000fa
:04014c000e0500009c
:020000040000fa
:040150000e05000098
:020000040000fa
:040154000e05000094
:020000040000fa
:040158000e05000090
:020000040000fa
:04015c000e0500008c
:020000040000fa
:040160000e05000088
:020000040000fa
:040164000e05000084
:020000040000fa
:040208000e050000df
:020000040000fa
:04020c000e050000db
:020000040000fa
:040210000e050000d7
:020000040000fa
:040214000e050000d3
:020000040000fa
:040218000e050000cf
:020000040000fa
:04021c000e050000cb
:020000040000fa
:040220000e050000c7
:020000040000fa
:040224000e050000c3
:020000040000fa
:040228000e050000bf
:020000040000fa
:04022c000e050000bb
:020000040000fa
:040230000e050000b7
:020000040000fa
:040234000e050000b3
:020000040000fa
:040238000e050000af
:020000040000fa
:04023c000e050000ab
:020000040000fa
:040240000e050000a7
:020000040000fa
:040244000e050000a3
:020000040000fa
:040248000e0500009f
:020000040000fa
:04024c000e0500009b
:020000040000fa
:040250000e05000097
:020000040000fa
:040254000e05000093
:020000040000fa
:040258000e0500008f
:020000040000fa
:04025c000e0500008b
:020000040000fa
:040260000e05000087
:020000040000fa
:040264000e05000083
:020000040000fa
:040268000e0500007f
:020000040000fa
:04026c000e0500007b
:020000040000fa
:040270000e05000077
:020000040000fa
:040274000e05000073
:020000040000fa
:040278000e0500006f
:020000040000fa
:04027c000e0500006b
:020000040000fa
:040280000e05000067
:020000040000fa
:040284000e05000063
:020000040000fa
:040288000e0500005f
:020000040000fa
:04028c000e0500005b
:020000040000fa
:040290000e05000057
:020000040000fa
:040294000e05000053
:020000040000fa
:040298000e0500004f
:020000040000fa
:04029c000e0500004b
:020000040000fa
:0402a0000e05000047
:020000040000fa
:0402a4000e05000043
:020000040000fa
:0402a8000e0500003f
:020000040000fa
:0402ac000e0500003b
:020000040000fa
:0402b0000e05000037
:020000040000fa
:0402b4000e05000033
:020000040000fa
:0402b8000e0500002f
:020000040000fa
:0402bc000e0500002b
:020000040000fa
:0402c0000e05000027
:020000040000fa
:0402c4000e05000023
:020000040000fa
:0402c8000e0500001f
:020000040000fa
:0402cc000e0500001b
:020000040000fa
:0402d0000e05000017
:020000040000fa
:0402d4000e05000013
:020000040000fa
:0402d8000e0500000f
:020000040000fa
:0402dc000e0500000b
:020000040000fa
:0402e0000e05000007
:020000040000fa
:0402e4000e05000003
:020000040000fa
:0402e8000e050000ff
:020000040000fa
:0402ec000e050000fb
:020000040000fa
:0402f0000e050000f7
:020000040000fa
:0402f4000e050000f3
:020000040000fa
:0402f8000e050000ef
:020000040000fa
:0402fc000e050000eb
:020000040000fa
:040300000e050000e6
:020000040000fa
:040304000e050000e2
:020000040000fa
:040308000e050000de
:020000040000fa
:04030c000e050000da
:020000040000fa
:040310000e050000d6
:020000040000fa
:040314000e050000d2
:020000040000fa
:040318000e050000ce
:020000040000fa
:04031c000e050000ca
:020000040000fa
:040320000e050000c6
:020000040000fa
:040324000e050000c2
:020000040000fa
:040328000e050000be
:020000040000fa
:04032c000e050000ba
:020000040000fa
:040330000e050000b6
:020000040000fa
:040334000e050000b2
:020000040000fa
:040338000e050000ae
:020000040000fa
:04033c000e050000aa
:020000040000fa
:040340000e050000a6
:020000040000fa
:040344000e050000a2
:020000040000fa
:040348000e0500009e
:020000040000fa
:04034c000e0500009a
:020000040000fa
:040350000e05000096
:020000040000fa
:040354000e05000092
:020000040000fa
:040358000e0500008e
:020000040000fa
:04035c000e0500008a
:020000040000fa
:040360000e05000086
:020000040000fa
:040364000e05000082
:020000040000fa
:100400006fce20000e7f22000e0188000000000049
:10041000000020000000e000020032000001200087
:1004200020028800140007007e0107000000e000a1
:1004300003003a00a0a922000100200002003700ba
:100440000000200001002000810f70000100320038
:1004500014000700000020000000e000020032004d
:100460000000020000000000ba2b020000000000a3
:100470000040da000000fe004440a900801b20007c
:100480000000e0000300320000002000a00188000e
:100490004440a800000006008a1f78008b1f7800e7
:1004a0000000060091018800800478000000eb0045
:1004b0001a003700e284440032a0b4009905ba0063
:1004c000e284440032a0b4009906ba00e2844400f9
:1004d00032a0b4000006eb00476fde00fd07b2005b
:1004e000636ce10003003a00ebff07000000eb0043
:1004f0000a003700606ce10004003a00005deb0088
:100500008b05e900fdff3e00040037006168e10053
:10051000010032000086eb000b00070019c7ba008b
:100520001905ba000e04e00003003a000a00e000da
:10053000e0ff3a0000000600fe07b2009e018800be
:100540008a047800f5ff3700395dba008b05e900b1
:100550000c003200295dba008b05e900080032006a
:100560000c00e00003003a00e284440032a0b40032
:10057000f5ff370019ddba008b05e900faff3a00f4
:100580008904e800e184440032a0b40000000600c1
:100590008821040000000000d221040000000000b7
:1005a000940c040000000000801f78000000fa0096
:1005b000d0418000000c880084e0a9000080fa008f
:1005c0004f007800004006000000fa00810880001b
:1005d000f0fc2f000080600080088800f314070002
:1005e000210c800080ff2f00008060006000b300bd
:1005f000200c88004136800000fe2f000080600043
:100600002001b30040368800f1140700f0002000fc
:10061000100c88000080eb00000c88003105800081
:10062000f0ff28000080600000c0a00030058800b6
:1006300084e0a90094e0a80011e1a8000080fa007d
:10064000000006000000fa00e0418000d041880070
:100650000080fa00000006000000fa003a28ef00cf
:100660000080fa00000006000200fa00000f780087
:100670009e007800d14188009e007800e14188000a
:100680000080fa00000006000000fa00e04180004f
:100690000080fa00000006003600f800809fbe00cf
:1006a000829fbe00849fbe00869fbe000000fa00ad
:1006b0008580a90080408000e10f500015003a00bd
:1006c000a140800090408000808f500008003c00d6
:1006d000a040800041b42000e14078008100fb0090
:1006e000211188000000e800a04088000a003700bf
:1006f0001028ef002342a900b04080000000e00075
:1007000005003200b14080009040800001000100ef
:1007100001003700000000000080fa004f03be0017
:100720004f02be004f01be004f00be003600f90070
:10073000004006003600f800809fbe00829fbe0089
:10074000849fbe00869fbe000200fa001011800048
:10075000610060000000e0001b00320030118000ea
:10076000004f7800d040800041b820001e41780042
:10077000827078000000e800d0408800d1408000fe
:1007800010428000808f5000060032001e4078002a
:10079000ea4f5000030032001e407800ed4f500039
:1007a00009003a00e04080000000e000050032004f
:1007b000e2408000104280008000780040b82000b5
:1007c000020001001a28ef008560a9000080fa00ed
:1007d0004f03be004f02be004f01be004f00be00df
:1007e0003600f900004006000000fa008c20a90045
:1007f0000080fa00004006000000fa002c63a80008
:100800002c83a800691407002135800000fe2f000a
:10081000008060000010a0002035880011368000a4
:10082000f00f2e008080600000302000010070007a
:1008300010368800661407002002a900011180000c
:1008400090ff2f0000806000001188002062a80047
:1008500001118000f0cf2f0000806000001188009f
:1008600060012000401188005105800080ff2f00aa
:10087000008060005000b3005005880041058000f2
:10088000f0ff28000080600000e0a0004005880024
:1008900021068000f0f82f00808060000006200014
:1008a00001007000200688008560a9008580a900ed
:1008b0008c20a9009560a8009580a8009c20a80025
:1008c00021e2a8001028ef001428ef001228ef0002
:1008d000020420008000eb0040b420000d0307005c
:1008e000020420008000eb0040b82000090307004c
:1008f0000000eb000080fa00000006000400fa008f
:10090000000f78001107980080408000e10f500030
:10091000040032009e00900000042000808f5000f0
:10092000020034000080eb000c0037001e00900035
:10093000000178009e00780040b42000ee0207001d
:100940009e009000914088001428ef002342a800e8
:1009500010002000804088001e0090000080fa00f7
:10096000000006000400fa00100798001e00900026
:10097000ef020700000f78009e0078001e00900034
:10098000deff07001e0078000080fa00000006006d
:100990000200fa00000f78009e007800e140880015
:1009a0000080fa00000006000200fa00000f780044
:1009b0009e007800b14088000080fa000000060028
:1009c0000200fa00000f78001e0078000000e0002e
:1009d00007003400000420009e007800808f500043
:1009e00005003c009e00780011428800030037009b
:1009f0000000000001003700000000000080fa0045
:100a0000000006000200fa00000f78009e00780047
:100a1000c14088000080fa00000006000040da00b3
:100a20000000fe000000050003f0a200889fbe0049
:100a30008a9fbe008c1f7800bc000700c3003300f3
:100a40006450e1004f0032006420e10052003200a7
:100a500003826c0007003b000905d0000306d000ac
:100a6000820f54000c065d000200390002003200c3
:100a700089017800030678008582550004003d0056
:100a80000003fd008103fd008502ea008b85420022
:100a9000840f720002003b0060001000e08018002c
:100aa0006011b8000005eb007a28e1000a00390067
:100ab00006007800c75ddd00f707b200878075008b
:100ac0002d003700828171000a0178006105600005
:100ad0008180d1000080d3008502e900f9ff3b004e
:100ae000060440008784480002003b0060041400b4
:100af000e0841c000988a300070032008a8171008d
:100b000082817100610164008904d1000884d300ee
:100b10008b05e800170037000978a30013003a009e
:100b20000b00e000130034008b05e90008044400ca
:100b300089844c000a4474000978a3000d003a002f
:100b40000b00e000070034008b05e90008044400b6
:100b500089844c0001003a000b0020000978a300b2
:100b6000f7ff32000001eb000200370082817100c4
:100b70000a017800320007000cf0a70001f0a00085
:100b80007b0037006420e10002003a00838f6c0094
:100b90007b0033000801be000200be007400370075
:100ba00014002000d80137000001be004a000700f1
:100bb0000470a70003f0a1006509b100160032001f
:100bc0000d0035006828e10006003500f0ff2f0019
:100bd000f1ff27000300e00013003b0001002800a4
:100be0000000050000004000818048008502e90007
:100bf000fcff3a0008003700f88f420002003c007a
:100c00008000eb00000005008100d1000080d300cf
:100c10008502e800fcff3a000300e00002003b0010
:100c200060001000e0801800000006004f89de0020
:100c300082017800cf0137006011b800dd01370074
:100c400081002000618055000b003d000b0020005a
:100c500061fe2f000100e1001d003400828171005f
:100c6000610164008904d1000884d3000000e80019
:100c7000faff3a0071002000610064000300700078
:100c8000020060000900320061044400e0844c006e
:100c90000988a500050032008b05e8006808e1001e
:100ca00002003a008904d1000884d300f20f20002a
:100cb0000258e10005003d00c75ddd00f907b20004
:100cc0008980750008007800000006000bf82700f6
:100cd0008b00780000000500c70ade00f107b200b3
:100ce000f50fb20008003200e1cf420002003200ee
:100cf0000170a00024000500810f70000100320087
:100d00000408050044000500810f700002003a004d
:100d1000140005008502e9000000400081c0480081
:100d2000fcff3b000170a000240005000004be0091
:100d3000e9ff07000003be000405be000200be007c
:100d4000e5ff0700844f7500000006000200be00aa
:100d50006450e100050036006420e1000200360026
:100d60000968a30001003a000800be000160a0006d
:100d70004f0678004f05be004f04be00000006007d
:100d8000f0ff2f00f1ff2700f9ff3700889fbe001a
:100d90008a9fbe008c1f7800e4ff0700ebff330042
:100da00003866c006450e100240032006420e100fe
:100db000270032006150e100220032006120e10092
:100dc000210032008b854200eb07b1000134b800ee
:100dd000003ab8000804420089844a00013ab80089
:100de0000030b8008880400009014a000400330048
:100df0000000400081804800020149008b05e900a5
:100e0000c909dd00830170000100320013002000d9
:100e1000c814de004814dd004709de001200b200ed
:100e2000c808de000884700085ff070001f0a100fb
:100e30000cf0a70001f0a000cdff37006120e10019
:100e4000cfff32000801be000200be00f7ff3700ee
:100e50006150e100fcff3a00c9ff3700889fbe00e7
:100e60008a9fbe0030044200b0844a0030054b0027
:100e700090854b006000b1000898be000a90be004b
:100e80000440e10005c8e10006d0e10007d8e10018
:100e900002003100680040001008e8004f05be0065
:100ea0004f04be0000000600889fbe008a9fbe005f
:100eb0003004be002005be000418540005985c00f4
:100ec00006185d0007985d00110020000440e10055
:100ed00005c8e10006d0e10007d8e10001003900b3
:100ee0008000eb00108810004f05be004f04be00cc
:100ef000000006001200fa00889fbe008a9fbe0014
:100f00008c9fbe00e0b79f00f1b79f0082bf9f009b
:100f100093bf9f000605be000404be000000eb0066
:100f2000d0b79f00c0b79f00b0b79f00a0b79f0089
:100f300090b79f000006eb005fb19700cfb097001d
:100f4000820141003fb097000200e00004003d0034
:100f5000370007007e805700c0ff070003003700fe
:100f6000330007007e805700cfff0700dfb69700f1
:100f70000d00e0000c0035006fb29700ffb2970043
:100f80000fbb97009fbb97001000200001002000be
:100f90006011b800000272008182720002037300c7
:100fa000838373001b0007000c06e8000104200087
:100fb000810f5600e0ff3a000d00e00004003d0004
:100fc0000802be000a03be007e805700a3ff070090
:100fd0005fa897000000e00005003a001fb29700ec
:100fe000afb297003fb39700cfb397000900070057
:100ff0006fb09700ffb097000fb997009fb99700a7
:101000004f06be004f05be004f04be000080fa0030
:10101000000006000100070000000600a4b79f00c2
:10102000b5b79f00c6b79f00d7b79f000000060066
:101030004f09de0082817100b3b79f004f01de00cf
:101040008180400082807000a1b79f008fb0970020
:101050004f09de00000040000200700090b79f00c2
:101060007fa897004f01de008180400082807000e1
:1010700081b79f000d0007004f3ade0000004000de
:1010800004007000f0af9f00080007000402420057
:1010900085824a0006034b0087834b00dfff070071
:1010a0000802be000a03be00000006002fb297002f
:1010b000bfb297004fb39700dfb397000000060060
:1010c000881f780018002000881f780089ff07001b
:1010d0008f87e9004f04780000000600801feb00b6
:1010e00084ff07008f87e90000000600889fbe008c
:1010f0008a9fbe00e00f5000e08f5800e00f5900bb
:10110000e08f59000c003d006044b8006055b80005
:101110000000540081805c0002015d0083815d005d
:10112000180020001500070008003d001800070007
:101130000004eb00050037000004eb000f0007007f
:1011400002003d001200070018002000dcff07002d
:101150000800e000060032006022b8006033b800ea
:101160000000520081805a0002015b0083815b0015
:101170004f05be004f04be0000000600e00f520005
:10118000e08f5a00e00f5b00e08f5b00000006007c
:101190006044b8006055b8000402540085825c00c9
:1011a00006035d0087835d0000000600889fbe0087
:1011b0008a9fbe008c1f7800e00f5000e08f58001f
:1011c000e00f5900e08f59000d003d006044b80069
:1011d0006055b8000000540081805c0002015d0091
:1011e00083815d001c0020000820e10009a8e100c7
:1011f0000ab0e1000bb8e1000d003d000800370027
:101200000006eb00e00f5200e08f5a00e00f5b0099
:10121000e08f5b0006003d006044b8006055b800f8
:101220000402540085825c0006035d0087835d0034
:10123000aaff07000c00e000060032006022b800a0
:101240006033b8000000520081805a0002015b0048
:1012500083815b004f0678004f05be004f04be003f
:1012600000000600889fbe008a9fbe008c1f780089
:101270000006eb00e00f5000e08f5800e00f59002f
:10128000e08f590007003d006044b8006055b80089
:101290000000540081805c0002015d0083815d00dc
:1012a0001c002000e00f5200e08f5a00e00f5b00ae
:1012b000e08f5b0007003d006044b8006055b80057
:1012c0000402540085825c0006035d0087835d0094
:1012d0000c00a200660007000c00e00006003200cf
:1012e0006022b8006033b8000000520081805a00cc
:1012f00002015b0083815b004f0678004f05be0052
:101300004f04be0000000600889fbe008a9fbe00fa
:10131000841f780085fe07004f007800110033001d
:10132000f0ff2f00838f6c0006003b000405650072
:101330000a00a7000800370009f0a60010002000ee
:1013400008003700820f5400838f5c0003003900cf
:101350001000200001003e000000200009f0a7005e
:101360000000ea004f05be004f04be000000e00090
:1013700000000600881f7800030478000300e000e6
:1013800007003d0060001000e080180060011900b7
:10139000e081190002003b0001f02d00030037003e
:1013a0000400070008f0a70001f0a0004f04780037
:1013b00000000600889fbe008a9fbe000082700069
:1013c0000402710004827100260032000004be0095
:1013d0000200be006011b8006b09200095022000d9
:1013e0000182cf000a0039000541b1000082cf0020
:1013f000070039000541b1000982cf00040039001f
:101400000541b1000882cf00010039000541b1005b
:1014100005425200120032000a003b008281710036
:10142000610164008100d1000080d3008984d30071
:101430000884d3008b05e8000442e800f7ff3a0077
:10144000070037000804440089844c00000048006d
:10145000818048008b05e9000442e900f9ff3a0069
:10146000f7fd07004f05be004f04be000000060058
:10147000889fbe008a9fbe008c9fbe000404b800f7
:101480000506b8008904460060854e000606b800cf
:101490000a054600e0854e000706b8008b054600a9
:1014a000040eb800890446000a854e00e0854d0010
:1014b000050eb8000a0546008b854e00060eb800e2
:1014c0008b0546000416b8000a0546008b854e00c1
:1014d0000516b8008b054600041eb8008b054600b3
:1014e0000800be000a01be004f06be004f05be0048
:1014f0004f04be00000006008001780002003700a3
:10150000b15978000201e9000200e000fcff3a0056
:101510000000060080017800020037008159780041
:101520000201e9000200e000fcff3a0000000600b2
:1015300080007800010178003104e000fdff3a00ee
:101540000000510000000600e4874700889fbe00ad
:101550008a9fbe008c1f78008e1f780000057800df
:1015600001077800020678000e00e00001003a0052
:101570006e8757008a0578008b047800890578000b
:101580003b4478000800fb00d20007000000e000a8
:10159000f9ff3a00d0c2b300804f5400030032007c
:1015a00000c0e900804f540002003a008904e800be
:1015b00001003700004478000c0178008e007800ac
:1015c00009007800290007009e8f540001003a00ae
:1015d0000a0f78009e0f550003003a00e00f5000fc
:1015e000e08f58000f003a00b2c2b300824f54009f
:1015f00004003a00e00f5000e08f580015003d0055
:1016000008003700d2c2b300824f540011003a00e4
:101610000200200003002800820f5000838f580032
:101620000a0036002002200000678800f0ff2f002b
:10163000f1ff2700d2c2b300824f540005003a00e8
:1016400000002000010028000200370060001000a8
:10165000e08018004f0778004f0678004f05be0065
:101660004f04be004f00b10000000600ee874700a7
:10167000889fbe008a9fbe008c9fbe008e1f780090
:10168000f0b79f000106780082057800000478001a
:10169000080578000a047800b84678000d00fb00c1
:1016a0008c0007000000e000f9ff3a00d0c2b30050
:1016b00080cf56000300320000c0e90080cf560002
:1016c00002003a000a05e800010037008046780071
:1016d0000b00e00005003500e18f550003003200eb
:1016e00040022000808f5500060034006044b8009e
:1016f0000c00e000700032007fb09700000e780010
:101700006d0037000b00e0000e003200f08f550036
:101710001a003a0000c3b3009a4f100017003a00b5
:101720001a40900081c7b300814f5000030032007f
:1017300081c5b300814f500010003a000a85e800cf
:101740000e003700ab00200000c3b3009a4f10001a
:101750000a003a001a40900081c7b300814f500040
:10176000040032008b00200081c5b300814f50007f
:1017700002003a000a85e8000b0120000a00780008
:10178000000278000400780001c3b300b0cf10005d
:10179000fbff3200040778006044b800b4b79f0034
:1017a0000d003700c1c1200081405000c1ef9f00f3
:1017b0006159b9000800be00c30807004fea97004e
:1017c0000401fb00cf91de00c8b79f00d9b79f008e
:1017d00002044000838448008e0278003e00fb0033
:1017e00085bf9f00430007000b0178008000780050
:1017f000c0c12000ab0407008fba97000000e000d2
:10180000e8ff3a003fb29700850f550005003a0007
:101810006044b8000c00e00027003200ffb29700df
:10182000240037000482520010c4200060c07d00f4
:101830000000fb00000252001700330011003a00c4
:101840004fe997000200fb00cf80de00000054004b
:1018500081805c00800f5400818f5c00090039009a
:101860006159b90085bf9f00840807008fba9700af
:101870004fb19700dfb19700820f5000838f58005f
:101880000500320020022000006788000084eb0081
:101890008084eb0005003700d0c2b30080cf560033
:1018a00002003a0060041400e0841c000c00e00018
:1018b00001003200050e78000800be004f077800d6
:1018c0004f06be004f05be004f04be00ef00b10042
:1018d000000006006900e100040035006d00e10031
:1018e000030034000002b1000100320000000500d6
:1018f00010000500800078001104b10003003500dd
:101900009101b10001003c000050a0000000060061
:10191000106780000000e0000100320000000100bc
:1019200000ce200000000600881f78000204780026
:1019300008017800f0fe0700080040004f0478001e
:10194000000006000000fa00881f780000047800fc
:10195000ea8157003fb997008800780040c920000d
:10196000070007000000e000020035008040eb00a7
:10197000017478004f0478000080fa00000006002f
:101980006200fa00889fbe008a1f78000005780078
:1019900081047800020478008300780080f92f0029
:1019a0000f0040006a0607009a979f00a9979f00c2
:1019b0000000eb00b09f9f001885fb008a04fb002d
:1019c0000a05ea004f55de0050022000808f5400c7
:1019d0000d003200e10f55000b003a000a017800bb
:1019e000880078002f9097009f91970003000100d6
:1019f000a0979f000000e0008e0032003f98970003
:101a00000000e800b09f9f000a044400500220003c
:101a1000808f5400040032000900e000e6ff3a0025
:101a20003f989700840037000000eb00909f9f00d4
:101a3000809f9f00f0979f00e0979f00d0979f00a6
:101a4000c0979f0007003700a1cd20000100500083
:101a500000004000e1cc200061007800df98970092
:101a600001007000d09f9f0088047800090478006e
:101a7000384578008a00fb00a0cd20001304070041
:101a80000000e000f0ff3a00a1c2b300814f550012
:101a90000e003a00cf8897000180e900c08f9f00b8
:101aa00010007800c09f9f000000e00005003d008e
:101ab0000000ea00c09f9f005f9897000020a000f0
:101ac000d09f9f000904e8000f003700c09f9f00cf
:101ad0000000eb0005003700f2ff2700820f5000e6
:101ae000020032006a01b900028040000904780057
:101af00088047800b900fb000103b100e98f5000b1
:101b0000f5ff3600c09f9f00e0c2b300984f100061
:101b1000020032000080eb0019003700a0c2b300c1
:101b2000d84f100007003a00cf8897000180e900e5
:101b3000c08f9f0010007800a09f9f000804e8005d
:101b4000100037000000eb00a09f9f008800780085
:101b500005003700f3ff2700830f5000020032001a
:101b60006a02b9000400410001047800880078008e
:101b70003101fb000203b100e90f5100f5ff36000f
:101b8000a09f9f00984478008900fb0060cc200053
:101b9000ce0307000000e000020032000804e80065
:101ba000010037008044eb00c97f9f0080c6b3006e
:101bb00080cf540004003a0098cf14000a003a0085
:101bc0006640500006003700c0c6b30080cf540006
:101bd00005003a0098cf140003003a006540400029
:101be000c07f9f000804e8001801fb00e3fb2f0002
:101bf0008f81410081f92f008f804000a0f92f00d4
:101c00000f004000100007000000e00009003a004b
:101c1000e1fb2f008f804000a0f92f000f00400053
:101c20000f0507000000e000020035000804e8008e
:101c300061ff37000080eb004f0578004f04be00c5
:101c40000080fa0000000600889fbe008a1f78000e
:101c500000047800824478000305780070c6b30061
:101c600080cf54001a003c0000c0e90080cf54002f
:101c7000c5003d006d40500080cf5400740032001c
:101c80000b003c007140500080cf54002d013c00ff
:101c900000c0e90080cf5400bb003d0050c2b3003b
:101ca00080cf5400240132007c4040000500370002
:101cb00030c6b30080cf54001a0032001e003c0032
:101cc00000c0e90080cf54001e013a00ae0037008a
:101cd000f0c6b30080cf54005d00320007003c0026
:101ce0006640500080cf5400130032006540400031
:101cf00080cf540013013a00cc00370050c7b30026
:101d000080cf5400520032006340400080cf540026
:101d10004f00320002c7b30082cf540009013a00dd
:101d2000f70037001181e900820878007800900000
:101d3000127578000901370028609000c2c6b30010
:101d4000824f500007003a001101780064005100f2
:101d5000800878001000be004f89de008201780004
:101d60001100370012c7b300824f50000300320049
:101d7000a2c6b300824f500006003a00110178005d
:101d800068005100800878005001be004000be008d
:101d9000050037001180e900800878001000780005
:101da000cf80de006109b900009cbe000294be0035
:101db0002862900085c6b300854f52000d003200a6
:101dc00025c6b300854f520004003a000000fb0016
:101dd000cf80de006109b9000800370045c7b300b5
:101de000854f520003003200e6c24200854f520088
:101df00004003a00cf80de006109b900009cbe00fb
:101e00000294be003802be002803be007800900095
:101e1000d1c2b300e00f5200e08f5a00e00f5b0028
:101e2000e08f5b0008003500881090000118a300c7
:101e300002003200b1c2b300030037000108a30062
:101e40004c00320001c2b300017578004700370032
:101e500028609000c2c6b300824f500006003a00ce
:101e60001101780064005100800878001000be0065
:101e70006011b8001100370012c7b300824f500044
:101e800003003200a2c6b300824f500006003a00a1
:101e90001101780068005100800878005001be00f0
:101ea0004000be00050037001180e900800878007e
:101eb000100078008000eb006011b800009cbe00ac
:101ec0000294be002862900085c6b300854f520080
:101ed0000d00320025c6b300854f520004003a00c1
:101ee0000080fb008000eb006011b80008003700a4
:101ef00045c7b300854f520003003200e6c24200de
:101f0000854f520004003a008000eb006011b800d9
:101f1000009cbe000294be00081090000038a30090
:101f2000140032003800be002801be00e00f50004f
:101f3000e08f5800e00f5900e08f59000d0032008b
:101f400080c7b30080cf54000300320080c5b300c7
:101f500080cf540007003a007800900001c3b3001e
:101f6000017578000000e800097578000000e800bd
:101f70007004980078009000000545006a049800fd
:101f8000894078006900370028619000c0c4b30020
:101f9000804f510006003a0011017800680051009e
:101fa000800878005001be004000be0005003700e8
:101fb0001101780064005100800878001000be0014
:101fc000e9050700009cbe000294be00b800900026
:101fd000780090000100e00002003d00d1c2b30093
:101fe00008003700881090000118a300020032009a
:101ff000b1c2b300030037000108a300040032009f
:1020000001c2b300017578000000e8007004980078
:1020100078009000000545006a0498008900fb00e4
:1020200008007800530007004e0037002861900038
:10203000c3c6b3001180e900834f51002400320071
:102040000a003c00e4c15100834f510027003200d8
:1020500083c1e800834f51001500320020c6b30051
:10206000804f510020003a000a00370043c7b300f8
:10207000834f51001d003200e6c14100834f5100e3
:102080001a00320010c7b300804f510016003a000a
:10209000060037001180e900800878001000780001
:1020a000485c9000084878002e0037001180e90055
:1020b0008008780010007800680a9000cfa2de0047
:1020c000612bb9000498be000690be0025003700c1
:1020d000800878001000780068099000cf91de0039
:1020e0000288be001f0037001180e90080087800d8
:1020f00010007800680c900008087800190037007c
:102100001181e9008208780012027800cfa2de0077
:10211000612bb900049cbe000694be00f80090003c
:10212000010545006a0498008040780008007800a6
:102130009c0207000b0037007800900009757800ba
:102140000600370078009000000545000904e00013
:1021500001003a0059c2b300094d78000000e800c0
:10216000700498000000eb004f0578004f04be009b
:10217000000006002f04b000889fbe008a9fbe00aa
:102180008c9fbe008e1f78000007780081f79f00ab
:102190003e04be002e05be005e0890000000e00078
:1021a00002003d0060002000500f98008e00780073
:1021b00020fb2f000f00400050020700e20f5000ec
:1021c0000a003a0030002000100f9800b1c9b30097
:1021d0000ff097008140400080bc2000e1cf50000c
:1021e0000d003e0040bc20000b0037000000e00066
:1021f0000f00340030002000100f9800b1c9b30068
:102200000ff197008140410000bd2000e1cf500058
:1022100001003e00c0bc2000ee009000b0487800f5
:10222000b06878001040780090409800f3003700c4
:102230000000e00005003a0022fb2f000f014100e2
:10224000001978008001eb00e70037006022b80039
:102250006033b8000800be000a01be008a0407000f
:102260000000e00001003d000bf0a20070592700c3
:102270009f9897000088b900026a28001300200088
:10228000e5040700640650009c9f9f0013003b007c
:1022900063061600c0ff2f00000666008c01ea00ee
:1022a000939f9f004dbd20000800be000a01be00a4
:1022b000070037000c08a300030032003d02be00f7
:1022c0002d03be00760507000c86d100e886460087
:1022d0000c00e000f7ff3c00180037000c00e000a5
:1022e00018003200c0ff2f00000666009c9f9f0070
:1022f0004dbd20006000b8000200200003ff230055
:10230000070037000c08a300030032003d02be00a6
:102310002d03be00620507000c86d100e88646004a
:102320000c00e000f7ff3c000002be000203be000c
:102330000800be000a01be005d0407000004be00e4
:102340000205be00de08900060c6b3000ff29700e1
:10235000804f5200040032006000200062c4b300cd
:10236000824f520002003a009f9a97006a80420012
:1023700081004000f1b79f0001037800f30f530084
:102380000200340037012000f7b79f0000c3b300fc
:10239000c0779f0056fb2f000f0343000e0078000c
:1023a000a0b79f00060778003d0037000800be0078
:1023b0000a01be000b0507000006be007fb19700b2
:1023c00068015100f2b79f004240a9000c003400a0
:1023d000300507000002be000203be000800be0078
:1023e0000a01be00a30507006022b80046782d0050
:1023f000771924002a0507000004be000205be006c
:10240000e80047008e0020000802be000a03be005c
:10241000b4b79f00c5b79f00d6b79f00e7b79f002e
:102420000c01be00010478000c003700a40020005d
:1024300005002000c0fd2f000f00400084010700b0
:102440006fa89700ffa897000fb197009fb1970062
:1024500005c3b300056441000001be00e00f510058
:10246000e08f5900030034000e07e900e10f470038
:10247000eeff3a00880078003fb49700cfb4970091
:102480005fb59700efb597000200370000c3b300b7
:10249000806078000e07e900fcff3b006887400081
:1024a0007fb397000600e000070034006022b80008
:1024b0006033b8000800be000a01be00f703070041
:1024c0000000e000b9ff3c000e0378002fb7970032
:1024d00051fb2f008f804000010353009f9b97000a
:1024e00067804300909f9f00020037000603e900c9
:1024f0000000e900010178008200780003c3b30006
:10250000b1cf1100f9ff3200909f9f00de099000cb
:1025100061c6b3000ff29700814f520003003200f2
:1025200061c4b300814f520002003a000000e8008d
:102530000a0037001000200051c6b3008ff2970048
:1025400081cf5200050032000540780050c4b2002f
:102550000080fb000000e9004f00de008301400026
:10256000868f510001003400860178000300e000ee
:102570001d00350000c3b300868f510006003d00ea
:1025800062c279006940400041c3b300814f5200ec
:1025900001003c00694050008300e90081004100d7
:1025a00001003700840178000302e900010378008c
:1025b000a142780080cf5200faff320091c3b300ed
:1025c000814f500001003a00054be8000400e00094
:1025d00005003d000201e9008301e8001f9b970010
:1025e0000603e800969f9f008ff397008700fb008b
:1025f0001f9a97000e007800060007004f0778002a
:102600004f06be004f05be004f04be002f04b100b0
:1026100000000600f0874700889fbe008a9fbe002a
:102620008c9fbe008e1f78000004780081447800e3
:102630000205be00040678000b00e00002003c002a
:102640001b0020004ace200060c6b30080cf54009b
:102650000e00320060c4b30080cf54000b00320083
:1026600070c6b30080cf54000300320070c4b300c2
:1026700080cf540081003a00e40f46007f0035000f
:1026800058089000800f56007c003d000c06e800c2
:1026900060c6b30080cf54001000320060c4b300a5
:1026a00080cf54000d003200081090000038a300c5
:1026b00004003a0058089000808f550001003d004a
:1026c0005b0c9800580890000c005000500c9800cb
:1026d00002003b000000eb00500c9800180890002e
:1026e000e80090000c00e00026003c0002c3b300ac
:1026f000827078000000e800100c9800d808900064
:102700000100e00003003c00881090000138a300a5
:1027100005003200e8009000e2c2b3008270780049
:102720000000e800100c9800580890008c00ea00a7
:10273000810f500001003d000006ea008c00ea0015
:10274000210c9800000646005c0c98008b0f560088
:10275000010034000b0678003c0c9800e800900063
:1027600018089000008040000c0178008a00780072
:1027700061fb0700580890000c0650004c0c9800b4
:10278000900037008c8f550018003d0000804000fd
:102790000b0178008a00780057fb070018089000aa
:1027a00000804500100c98008b0556002b0c9800fb
:1027b000d80890000100e00003003c008810900061
:1027c0000138a30006003200e8009000e2c2b30026
:1027d00082707800380890000000e800300c980003
:1027e00058089000400c98007600370000804000a8
:1027f0000c0178008a0078003ffb07001808900061
:1028000000004600100c98008c855500d8089000f8
:102810000100e00003003c00881090000138a30094
:1028200005003200e8009000e2c2b3008270780038
:102830000000e800100c980058089000808f5500a8
:102840000100340080057800e8009000180890002e
:10285000008040008c0045000b01780026fb07003b
:10286000180890000b004000100c980058089000c9
:102870008b0550002b0c9800520037001808900070
:10288000e80090009a7078000000e800100c9800b2
:10289000d80890000100e00003003c008810900080
:1028a0000138a30005003200e8009000e2c2b30046
:1028b000827078000000e800100c98005808900022
:1028c0000000e000100034008b05e900808f550007
:1028d0000100340080057800e8009000180890009e
:1028e000008040008a00e8000b01780002fb07002e
:1028f000180890000b004000100c98005808900039
:102900008b0550002b0c9800e800900018089000f0
:1029100000804000095878000007e8000c00e00043
:1029200004003500b1c2b300014878008e0478007d
:1029300004003700d1c2b300014878008e0478004b
:102940000c06ea007d8557008006eb000900370081
:10295000a20020008c007800728057003100070030
:102960007fb097008fb89700016d7800000678005f
:102970008d06e8000c00e000f5ff3c000d00e000d3
:1029800009003a008e04780000c3b300805c780030
:10299000050037008d06e900fc80570061c07e000d
:1029a00002c3b300825c40000d00e000f9ff3c0070
:1029b000e8009000180890000080400080845400d7
:1029c000390c98000810900074006000f00f50005f
:1029d0000e003a00980890007800900000804000b7
:1029e000a808900001004000b808900001004000d5
:1029f000c808900001004000f8089000810f5000c6
:102a000002003d0000805000000c98004f07780045
:102a10004f06be004f05be004f04be000f01b100bf
:102a20000000060080027800010378001100090010
:102a30000203d80080017800830a78000299b90067
:102a40000201530092029800050078000000060081
:102a5000881f78008a9fbe008c9fbe00000478000b
:102a60000205be000406be000401be000a00be004e
:102a7000e9020700008cbe000c01be001204070032
:102a80000005550081855d002a0498003b049800ec
:102a9000080078004f06be004f05be004f047800c6
:102aa0000000060003003700b0cf10000500320020
:102ab0000201e900800178000200e000faff3a001c
:102ac0000000050003007800000006000200370047
:102ad0000304e000060032000001780002007800e4
:102ae000b041780081cf5100f9ff3a000100370072
:102af0000001eb000200780000000600889fbe0085
:102b000000047800e68440001900d0004500de0093
:102b1000f27f2000820f500010003a00000ceb0002
:102b2000990478006f816400200020001b003a00a7
:102b3000210190000200e00018003a00110190000d
:102b40000200e00015003a00100020001100e00033
:102b50001200320020002000100037000000e000ca
:102b600004003a0001007800fb0107000000e000cb
:102b700008003c00f20028001901610001fe23005a
:102b8000810c710021c02f00010c40000080eb007f
:102b900002003700000ceb000000eb004f04be0009
:102ba00000000600fc874700889fbe008a9fbe0089
:102bb0008c9fbe008e1f78000006780080c5b30091
:102bc00080cf50000a0032007740400080cf500094
:102bd0000a0032006940400080cf50000b003200f4
:102be000b0c9200080bf9f00ae0020000a0037005f
:102bf000a2c8200082bf9f0006003700b3c9200092
:102c000083bf9f008e00200003003700b4c920005e
:102c100084bf9f000e0120003c02be002c03be00ba
:102c20000605be000404be0040c6b30080cf5000bd
:102c3000030032006540400080cf50000b003a0096
:102c4000e00f5200e08f5a00e00f5b00e08f5b0066
:102c500006003d006000b8006011b8000404500098
:102c6000858458000605590087855900e80f5700ec
:102c70000400320040002000f00f570038003a00f6
:102c80000100370030002000e00f5400e08f5c00ae
:102c9000e00f5d00e08f5d0004003a00dc0890006a
:102ca0008d0120000100e000060032008e00e900e6
:102cb000888060008fba9700e5c07800f1ef9f0030
:102cc0007d012000800078008100e90005003300cc
:102cd0008b05d1000a85d3008984d3000884d300f2
:102ce000f9ff3700089ebe000a96be0012003700aa
:102cf0008d06e9008e00e900848060000fb997001e
:102d0000e2c1780082fd2f000f01410003f17e0037
:102d1000800078008100e900050033008783d1003e
:102d20000683d3008582d3000482d300f9ff3700e5
:102d3000049ebe000696be003c02be002c03be00f0
:102d4000e00f5200e08f5a00e00f5b00e08f5b0065
:102d50008b0034000d00e000e5ff3c0088003700e8
:102d60002c60900081c6b300814f50000b003200f0
:102d700006003c000004e00008003200e6c05000fd
:102d8000814f50004e003a0004003700c1c6b30026
:102d9000814f50004a003a00210037000800e0004f
:102da00004003a005c0890008d0120000000e00063
:102db00006003200110009000e84d8000fb99700f8
:102dc000e2c07800f1ef9f007d01200011000900b2
:102dd0000e84d8000a003700110009000e04d80044
:102de0008d06e9000e81b900020454008fb89700e7
:102df00061417c0081fd2f008f80400082f07e00c9
:102e0000000478000800e000020032000d00e0003d
:102e1000f1ff3c00cfc4de00614db9002500370052
:102e2000e00f5400e08f5c0004003a005c08900062
:102e30008d0120000000e000070032006171b90040
:102e40000800be001d0307008fb99700e34178001a
:102e5000f3ef9f007d0120006171b9000800be0002
:102e6000060307000b0037006171b9000800be00bf
:102e7000e90107008d06e90000f1b90002045400e1
:102e80000fba9700e4427c0084fd2f000f0242003d
:102e900005f27e000004be00e00f5000e08f5800f5
:102ea000020032000d00e000efff3c004fcdde00dd
:102eb0008a057800089ebe000a96be0030003700e2
:102ec000e00f5400e08f5c00e00f5d00e08f5d00dc
:102ed00004003a005c0890008d0120000000e00032
:102ee000090032006172b900612bb9000800be0010
:102ef0000a01be0079f807000fba97006442780013
:102f0000f4ef9f007d0120006172b900612bb900d0
:102f10000800be000a01be0069f807000d00370076
:102f20006172b900612bb9000800be000a01be0041
:102f30006ef807008d06e90000f2b90004045400a1
:102f40008fba970065427c0085fd2f008f8242007a
:102f500084f27e00009ebe000296be003c04be00cd
:102f60002c05be00e00f5400e08f5c00e00f5d0018
:102f7000e08f5d00020034000d00e000e8ff3c003f
:102f8000e80f570010003a000c1090000038a30022
:102f90000d003200f78f560006003e0085fd2f0021
:102fa0008f824200e5c07e0000c3b30080cf500096
:102fb000050032008d06e90002c3b30081fd2f0039
:102fc0008f80400082f07e0078811600120e9800fb
:102fd0006c00900083fd2f008f8141008d804100a7
:102fe00045f907001c089000dc089000810f500094
:102ff00006003d0000805000000e98000c1090006c
:103000000040a100001698000f0037000100e0000a
:103010000d003d008c109000f4806000f08f500097
:1030200009003a007c099000fc00900081005100ea
:103030000c09900082805000008050004240a9009e
:1030400001003400000e98004f0778004f06be00c4
:103050004f05be004f04be00cf01b10000000600c6
:103060000400fa00889fbe008a9fbe008c1f780073
:103070000004780001067800f80d900078009000b8
:10308000808555000808900080855500180890003c
:1030900080855500280890008085550038089000ec
:1030a0008085550048089000808555000002220068
:1030b00090bf9f0000032300a0bf9f000810900056
:1030c0000028a30015003a000b00e00013003400b4
:1030d0000b0578008a047800e20f550001003600e5
:1030e00029002000c801900009017800ee805700f7
:1030f0005800900003000100500498000000e00018
:103100008c0032006808900009004000600c9800b4
:10311000090555004240a900eeff3c0078019000ef
:103120000200e0000c003400c80190008c00780020
:103130005800900003000100500498008080eb00cc
:103140000000e0007c003200e80890007800900069
:1031500000804000600c9800880c90000900e0009e
:103160001100340009057800e28f54000100360098
:103170002a002000c80190000a017800ec80570066
:103180005800900003000100500498000000e00087
:1031900068003200680890000a004000600c980047
:1031a0008a845400edff3700180990000200e00007
:1031b0000c003400c8019000e80090005800900016
:1031c00003000100500498008080eb000000e00044
:1031d00059003200e8089000180890000080400074
:1031e000600c9800a80c90000900e0001100340069
:1031f00009057800e28f5400010036002a00200003
:10320000c80190000a017800ec8057005800900037
:1032100003000100500498000000e0004500320067
:10322000680890000a004000600c98008a845400ee
:10323000edff3700380990000200e0000e00340076
:10324000e80090001808900080804000c8019000bd
:103250005800900003000100500498008080eb00ab
:103260000000e00034003200e808900038089000c8
:1032700000804000600c9800c80c90000900e0003d
:103280001100340009057800e28f54000100360077
:103290002a002000c80190000a017800ec80570045
:1032a0005800900003000100500498000000e00066
:1032b00020003200680890000a004000600c98006e
:1032c0008a845400edff3700081090008000eb0066
:1032d0000028a300180032000b00e00016003400a4
:1032e0008b04780009057800e28f54000100360055
:1032f0002a002000c80190000a017800ee805700e3
:103300005800900003000100500498000000e00005
:1033100008003200680890000a004000600c980025
:103320008a8454004240a900eeff3c008000eb007c
:10333000010037008080eb00010078004f06780024
:103340004f05be004f04be000080fa0000000600da
:103350000108780000000600e60040001101780036
:1033600005002800850261006f0161008208780075
:10337000020032001200200011003700a00190006e
:10338000120020000300e0000d003a0090019000c0
:103390000300e0000a003a001000e00008003a00d4
:1033a00036003700640340009608780080017800fa
:1033b000530b7800900978000408780070015100e0
:1033c000110278000400e000f6ff3200130037001d
:1033d00064024000140378004f33de008381410013
:1033e0008308730080017800d3037800cf3bde00b0
:1033f0001403780006034300068a73001302780062
:1034000004024200100378004f33de008609720088
:1034100090017800038841000201e90091017800e1
:10342000ef8f5100eaff360010003700800178006e
:10343000530378004f33dd001002d10004087300fd
:103440006402400094037800cf3bdd001303d100f9
:1034500086897300110378004f33dd009401d10099
:10346000030a73009108d1000201e800910178007d
:10347000ff8f5100edff3e00ef88610091887200e0
:1034800002007800000006008f1fd1001102070023
:103490008f87e9000000e00000000600809feb003d
:1034a0000c0207008f87e9000000e0000000060022
:1034b0002800fa00889fbe008a9fbe008c9fbe0035
:1034c00003866b008f0007006400e10044003200b7
:1034d0006408e1004a0032006100e1004600320069
:1034e0006108e10049003200ec0647006000b800c6
:1034f0003d02be003d03be00f48657006011b800d7
:103500003d04be003d05be007d0320000b003700da
:103510000000a0008d06e900130032000402420002
:1035200085824a0006034b0087834b000000400061
:10353000818048000201490083814900080252004d
:1035400089825a000a035b008b835b00f0ff3b001b
:103550000802420089824a000a034b008b834b0019
:103560008d06e900edff3a008482720086827200c7
:10357000f707b200878272000100320015002000b8
:103580001e0490003e0b900006035400e63fb0007e
:103590000368a300070032000000a7000500a00098
:1035a0008301d1000281d3008180d3000080d30049
:1035b0000603e8008301d1000281d3008180d3009b
:1035c0000080d3000002eb000482d200210007003b
:1035d00003f0a1000cf0a70003f0a0005d0037008d
:1035e000640247006408e100570032003400be0066
:1035f0003401be00f6ff37006108e10052003200de
:103600006011b8006000b800f1ff370003ff270029
:1036100002002000fbff3700839f68000100e000ec
:1036200002003d0060001000e08018000300e00090
:1036300002003d0060011100e08119000f01070048
:103640004f00e00002003b0060001000e080180026
:103650000000060018002000570020000804530056
:103660000d003d000600200097fc2f000740e10000
:103670001e00340084827200610260008301d10068
:103680000281d3008180d3000080d3000804e800c9
:10369000f8ff3a0047002000610460000504740050
:1036a000040464000d00320061004000e080480026
:1036b00060014900e081490003b8a500070032001d
:1036c0000603e8006538e10004003a008301d100f8
:1036d0000281d3008180d3000080d300f87f2000d6
:1036e0000830e10003003500080378006000b800ee
:1036f0006011b8004433dd00f300b20083017300b1
:1037000000000600680447000294be000094be005a
:10371000fc0447008694be008494be000900780033
:10372000b501070008007800b30107009900780090
:10373000814f70000b003b000800be008e010700a7
:103740004f00b10003003700f3ff2700f2ff2f0006
:103750006110b9004f06be004f05be004f04be0009
:103760000080fa0000000600810378005af5070087
:103770000001be006000b8000478a30013003a0006
:103780006220e10015003e000d0039008301d100e8
:103790000281d3008180d3008301d1000281d30054
:1037a0008180d3008301d1000281d3008180d300c6
:1037b0000538b000c42add00f300b2008381720036
:1037c00007f0a70003f0a00000000600f3ff2700a9
:1037d000f2ff2f006110b900fbff370003ff270045
:1037e000f7ff37001400fa00889fbe008a9fbe00d2
:1037f0008c9fbe000004be000205be0068004700aa
:103800000a90be000890be007b0107000070a70070
:103810000bf0a100304320009e02900080825200f5
:10382000b0fe2f000028e10011003d00b0fc2f0089
:103830000028e100150034001e0990008e08900059
:103840007e0090000501b0000201d1008180d3000c
:103850000080d3008502e800fbff3a000b00e00087
:10386000bcff3b0060001000e0801800b9ff37008b
:10387000f0ff2f00f1ff27000b00e000b5ff3b0039
:103880000100280000002000b2ff37006000b800ef
:10389000b0ff37004f89de00820178007d013700dc
:1038a0002800fa00889fbe008a9fbe008c9fbe0041
:1038b00003866b0093ff07000028a30064003a0012
:1038c0000128a30067003a000008a30062003a0044
:1038d0000108a30065003a001e009000be08900099
:1038e00081064000ed3fb100f4805700ee019000ea
:1038f000111ab8008e099000311bb8009e09900083
:10390000311cb800511db800f4855700460007006f
:10391000fe0190003a0007008b85e8003e0007009a
:103920008e09900040000700ee019000340007006f
:103930008b85e800380007008e09900040000700e2
:103940009e0990001b18b800890440000a854800b1
:10395000fe019000340007008b85e8003800070066
:10396000ee019000300007008e0990001b18b8008f
:10397000890440000a8548000a98a30008003a001c
:103980000402420085824a0006034b0087834b00f5
:1039900008044c0089844c000a054d008d06e9009e
:1039a00084827200850273004c3add008502720049
:1039b0000100320015002000443ade001400b2007d
:1039c0004538de00cb45dd000b007000c540de0051
:1039d000cb4ddd008b8070004549de00cb55dd000e
:1039e0000b017100c551de000d03780019ff0700bf
:1039f00003f0a1000cf0a70003f0a00055ff370072
:103a00001b18b8008502400006834800e0834b0085
:103a100060044c00070037001b18b8000603400084
:103a200087834800faff37001b18b800870340005f
:103a300008844800e0844c0060054d00000006004a
:103a40001b18b8000804400089844800faff3700ba
:103a50000108a3003cff3a005800be005801be0018
:103a6000e3ff37000008a30037ff3a00090478009d
:103a7000f9ff370007f0a200190037006022b800f4
:103a8000060220000000d0008180d2000482d20013
:103a90008582d2000000a0000202520083825a00f8
:103aa000030031000202420083824a000000a100ac
:103ab0000603e900f3ff3a0000000600efff0700ed
:103ac0000400be0000000600020ab900001bb90095
:103ad0000200b8008100420081004300000006009f
:103ae0002800fa00889fbe008a9fbe008c9fbe00ff
:103af00007067800878669000c003b000304780005
:103b00008704780008f0a10009f0a100840f50009c
:103b1000858f5800860f5900890f5c000300330021
:103b20000cf0a20001003a000cf0a100f5fe070025
:103b30006400e1005f003200780147006408e100a2
:103b4000610032006c014700748557003200be00ee
:103b50001201be003a04be001a05be001e0390000a
:103b6000be0a90008503530006003d000004fd00de
:103b70008104fd000205fd008305fd008703ea00c6
:103b8000050378000df8a30004003200600414005f
:103b9000e0841c0060051d00e0851d006022b80067
:103ba0007d0320000d38e1008006eb000b0039009a
:103bb0004433dd00f300b2008301730039003700a5
:103bc000848272000d027800e10664008b85d100ca
:103bd0000a85d3008984d3000884d3008703e900d1
:103be000f7ff3b0008004000898048000a014900b7
:103bf0008b81490004003b0060001000e080180049
:103c000060011900e08119000358a3000900320087
:103c10008d82720084827200610260008301d10093
:103c20000281d3008180d3000080d3000603e80026
:103c30001b0037000348a30017003a000600e0000d
:103c4000170034000603e9000d00a300000048003f
:103c50008180480002014900838149000348a30094
:103c60000f003a000600e000090034000603e900f6
:103c70000000400081804800020149008381490022
:103c800001003a000003eb000348a300f5ff3200f7
:103c90006022b800020037008482720061826600f0
:103ca0006cfe070003f0a1000cf0a70003f0a000d9
:103cb000a8fe3700640147006408e10002003a00f2
:103cc0000df8a300a0fe3a003200be001201be00b3
:103cd000a0fe3700889fbe008a9fbe008c9fbe005a
:103ce0000404be000605be00809fbe00829fbe0089
:103cf0002f000700040678000800be000a01be007d
:103d00002b000700840678004f03be004f02be0060
:103d10008d4f76007fb0970013003300f0ff2f0027
:103d20008b8f6b0006003b000d0666000c00a700a1
:103d30000a00370007f0a600100020000a00370034
:103d4000880f5200898f5a008a0f5b008b8f5b00af
:103d5000030039001000200001003e000000200098
:103d600007f0a7000000ea004f06be004f05be00a6
:103d70004f04be0000000600e48240001078a3005b
:103d800007003200640240001178a3003400be0036
:103d90001401be00040032000330a700000006003a
:103da0003500be001501be000330a0000000060073
:103db00005ff270005826100070032000428e100aa
:103dc00001003200240005000600070001003a004f
:103dd000440005000408050002000700f9ff3a004e
:103de000140005006f82610081027000850271007d
:103df0008502720000000600800078005002be00bc
:103e00005003be004439de00f700b200f37f20000b
:103e100003016100090032000218e10016003a00b7
:103e20008501720083017300838173000008200004
:103e300015003a0040002000130037008501720091
:103e4000830173008381730005003a0004a8be005b
:103e500006a8be00100020000b0037000201e90098
:103e60000402420085824a0006034b0087834b0010
:103e70000748a300f9ff32000740a00004a8be00d5
:103e800006a8be0020002000800098009200980044
:103e900000000600881f7800030478000300e0009b
:103ea00007003d0060001000e0801800600119006c
:103eb000e081190002003b0001f02d0003003700f3
:103ec0000400070008f0a70003f0a0004f047800ea
:103ed00000000600889fbe0000827000040271008e
:103ee000048271002400320036432000c500200007
:103ef0008383cf000a0039000541b1008283cf00df
:103f0000070039000541b1008183cf00040039006a
:103f10000541b1008083cf00010039000541b100a7
:103f200085c353006022b800120032000a003b0033
:103f300084827200610260008301d1000281d3009b
:103f40008180d3000080d3000603e8008743e800a7
:103f5000f7ff3a000700370000004000818048006a
:103f600002014900838149000603e9008743e90013
:103f7000f9ff3a00b7fd07004f04be00000006003d
:020000040000fa
:103f80008f02000053740000696c00006c20000078
:103f9000696e000069740000696100006c690000ce
:103fa0007a6900006e6700002e2e00002e0d0000c2
:103fb0000a00000045720000726f0000720d0000e0
:103fc0000a000000256600000d0a000000520000f3
:103fd0004820000053650000747000006f69000005
:103fe0006e7400003a200000253200002e320000de
:103ff000660d00000a000000703a00002025000055
:10400000322e000032660000206900003a200000d5
:10401000253200002e32000066200000643a0000c5
:1040200020250000322e0000326600000d0a00003c
:1040300000440000757400007920000063790000de
:10404000636c0000653a000020250000640a00004f
:104050000d00000052650000712e00002046000097
:10406000616e0000206f00006e2000007469000087
:104070006d6500003a20000025640000205b000010
:104080006d7300005d2000000a0d00000056000066
:10409000616c000075650000206f00007574000001
:1040a000206f000066200000726100006e67000053
:1040b000652e00000a0d0000004f00004b0a0000b2
:1040c0000d000000496e00002076000065720000bf
:1040d000626f000073650000206d00006f640000d7
:1040e000650d00000a00000052650000712e0000fe
:1040f00020740000656d0000703a00002000000090
:1041000052650000712e000020520000483a000065
:10411000200000005365000074200000676100006b
:10412000696e0000730d00000a0000004765000082
:104130007420000067610000696e0000730d0000cc
:104140000a0000005365000074200000524800007f
:10415000205b0000302d000031300000305d000099
:104160003a00000053650000742000004475000010
:104170007479000020430000796300006c65000042
:10418000205b0000302d000031300000305d000069
:104190003a200000004400007574000079200000ff
:1041a00063790000636c0000652000005b30000054
:1041b0002d310000303000005d3a0000200000008a
:1041c00052650000712e000020660000616e000044
:1041d000206f00006e200000746900006d65000013
:1041e0003a200000005300006574000020660000c3
:1041f000616e0000206f00006e20000074690000f6
:104200006d650000205b0000302000002d200000c4
:104210003130000030300000206d0000735d000080
:104220003a20000000530000747200006561000035
:104230006d6900006e670000204f00004e0a00000c
:104240000d0000005374000072650000616d0000f5
:10425000696e0000672000004f460000460a00001b
:104260000d0000004469000073610000626c0000f2
:10427000656400002076000065720000626f000037
:1042800073650000206d00006f640000650d000084
:104290000a000000556e00006b6e00006f77000092
:1042a0006e200000636d0000640d00000a00000035
:1042b000743a000020250000332e00003366000011
:1042c000206800003a200000253300002e33000053
:1042d000660a00000d0000007265000073650000b2
:1042e000742e00002e2e0000200a00000d00000099
:020000040000fa
:1042f0000000fa0080182200a5f10700201d22000e
:10430000a9f107003e28ef000080fa000000060037
:104310000600fa001007980021079800f04180007d
:104320000000e00009003a001e00900010407800f4
:104330000000fb00000f78009e007800014288001a
:104340001e0078001d00070014003700f0418000b7
:10435000e10f500006003a000042800000017800a2
:10436000ae0090001e009000eb0007000b0037002d
:10437000f0418000e30f500003003a0020fc2900c8
:1043800078f1070005003700f0418000e20f50008f
:1043900002003a00a0fd290072f107000080fa0037
:1043a000000006000200fa00000f78001000200054
:1043b000904188000080fa00000006002000fa000a
:1043c000700f98007e0890006101b800c0fb2f00bc
:1043d000f1ff2f00020040008380480022032000ec
:1043e00003002000820f5000838f5800c5003e005c
:1043f000006001008a003700c4003700ad003700bc
:10440000620037007f003700c0003700bf00370070
:10441000be003700bd003700bc003700bb003700ce
:10442000ba003700b9003700b8003700b7003700ce
:10443000ac00370037003700b4003700ad0037005c
:10444000b2003700b1003700b0003700af003700ce
:10445000ae003700ad003700ac003700ab003700ce
:10446000aa003700a9003700a8003700a7003700ce
:10447000a600370071003700a40037008100370024
:104480004900370033003700a00037009f00370095
:104490009e0037009d0037009c0037009b003700ce
:1044a0009a003700990037009800370097003700ce
:1044b00087003700070037009400370000003700fe
:1044c00010002000704188007e089000060107005f
:1044d0008f0037007e08900003010700ee004700c0
:1044e0006a004700830307007e0090008e0890005a
:1044f000809fbe0020fe2900801f7800c0ca2000d7
:1045000010f50700e6875700c0ca200015f1070024
:104510007f0037007e089000f3000700ee004700a0
:104520006a004700730307005e009000ee009000f1
:10453000809fbe0020fe2900801f7800c0ca200096
:1045400000f50700e6875700c0ca200005f1070004
:104550006f0037000e030700008fbe007e0890003a
:10456000e10007001e00be00809fbe0070fe290013
:10457000801f7800c0ca2000f2f40700e6875700c9
:10458000c0ca2000f7f00700610037007e089000e5
:10459000d500070010002000f0418800a000200096
:1045a00007f107005a0037007e089000ce00070090
:1045b0007a014700f6004700720047000c0307002d
:1045c0005e0a9000ee0a90003e099000ce0990002d
:1045d0001e089000ae089000849fbe00829fbe001f
:1045e000809fbe00c0ff2900801f7800c0ca200045
:1045f000d4f40700ee875700c0ca2000d9f00700a6
:10460000430037007e089000b7000700100020002c
:10461000f0418800a0002000e9f007003c003700ce
:104620007e089000b000070010002000f0418800d4
:10463000a0002000e2f007003500370012f007006c
:104640002007980000fe8400ae0090000001780072
:10465000110009008200d80030079800be009000c9
:10466000811f780090012a00801f7800c0ca2000b6
:10467000b4f40700e4875700c0ca2000b9f007006f
:1046800023003700ec020700400798004e0190001d
:10469000821f7800a0022a00801f7800c0ca200074
:1046a000a8f40700e4875700c0ca2000adf0070057
:1046b000170037007e0890008b00070010002000d4
:1046c000f0418800a0002000bdf007001000370076
:1046d0007e089000840007001000200080418800c0
:1046e0000b0037007e0890007f0007003028ef00a5
:1046f000070037007e0890007b0007002e28ef009f
:104700000300370000000000010037000000000037
:104710000080fa00000006000e00fa004007980032
:1047200051079800620798006e0090006104200015
:10473000810f50005300320061042000810f5000af
:1047400004003e0041042000810f500008003200a8
:104750006000370071042000810f50001b00320000
:1047600081042000810f50003000320059003700d2
:10477000a20020008000eb004e00900072f30700c2
:10478000000f78001e0078000000e00004003500f3
:10479000400620009e007800808f50000300340007
:1047a00070042a006ff007004a003700d0052a0085
:1047b0006cf0070001fe84001e0078000088b9003c
:1047c00000007800a8ef070042003700a200200098
:1047d0008000eb004e0090005bf30700100798008c
:1047e0001e0090000000e000040035009e009000d4
:1047f000401f2000808f50000300340070042a0006
:1048000058f0070033003700d0052a0055f00700a4
:104810001e009000cf80de0004f107006022b80087
:104820006011b8005f0207002a003700a2002000d4
:104830008000eb004e00900043f307002007980033
:104840002e0090000000e00004003500ae00900053
:1048500040062000808f50000300340070042a00be
:1048600040f007001b003700d0052a003df007008c
:104870002e009000cf80de00ecf007003d02070024
:1048800014003700a20020008000eb004e009000d2
:104890002df30700300798003e0090000000e00074
:1048a00004003500be009000803e2000808f500044
:1048b0000300340070042a002af0070005003700c6
:1048c000d0052a0027f007003e0090005e02070096
:1048d000000000003e28ef001000200038f0070024
:1048e0000080fa00000006000200fa00000f7800c5
:1048f00070418000e10f50006a003a001e0078000d
:104900006101b800c0fb2f00f1ff2f000200400042
:10491000838048002203200003002000820f500003
:10492000838f58005b003e000060010044003700a8
:10493000580037004b003700380037003d00370083
:104940005400370053003700520037005100370041
:10495000500037004f0037004e0037004d00370041
:104960004c0037004b003700440037002800370068
:104970004800370044003700460037004500370044
:104980004400370043003700420037004100370041
:10499000400037003f0037003e0037003d00370041
:1049a0003c0037003b0037003a0037002700370053
:1049b00038003700280037001b003700350037006b
:1049c0003400370033003700320037003100370041
:1049d000300037002f0037002e0037002d00370041
:1049e0002c0037002b00370021003700050037006e
:1049f000280037000000370020062a00d9ef070002
:104a00002900370040072a00d6ef070026003700ac
:104a100000082a00d3ef070023003700a0082a006f
:104a2000d0ef07002000370060092a00cdef070013
:104a30001d003700200a2a00caef07001a003700bd
:104a4000200b2a00c7ef070017003700b00c2a0020
:104a5000c4ef070014003700000e2a00c1ef070062
:104a600011003700300f2a00beef07000e0037009c
:104a700030112a00bbef07000b00370020122a007c
:104a8000b8ef07000800370020132a00b5ef070031
:104a900005003700a0142a00b2ef07000000000054
:104aa00001003700000000000080fa00000006004e
:104ab0000800fa0080418000e10f500014003a0025
:104ac0006000b800008fbe006000b80020079800aa
:104ad00031079800640047008e0078000502070047
:104ae0002e019000be0190001e00be00829fbe00fd
:104af000809fbe0080152a00801f7800c0ca200059
:104b000090f30700ea875700c0ca200095ef07001e
:104b10000080fa00000006000000fa00c9c2a900e7
:104b2000c9a2a9000080eb00601988000080fa008b
:104b3000000006000000fa00c9a2a8000080fa00e8
:104b4000000006000000fa00c9a2a9000080fa00d7
:104b5000000006000200fa00faff07000000eb0068
:104b6000000f78000000eb00000f78000400370011
:104b7000cdc2a80000000000cdc2a9001e0fe800b1
:104b80001e007800ef0f5000f9ff34000080fa009b
:104b9000000006000000fa00040007002cc8bf0057
:104ba000330007000080fa00000006000000fa0051
:104bb000e4ff0700cda2a800cdc2a800cda2a900a5
:104bc000cdc2a900cdc2a800cda2a800cdc2a90027
:104bd0000080fa00000006000400fa00d5ff07007c
:104be0000040eb00004f78000000eb001007980039
:104bf0000000eb00100798000d003700cdc2a800a0
:104c00001e40780000404000804078005016800030
:104c10004d00de006140600000c04000004f7800a1
:104c2000cdc2a9001e0090000000e8001007980007
:104c30001e009000e70f5000f0ff3400000000005d
:104c40005116800000002200008060000000e0009b
:104c5000fbff3200bbff0700cda2a900cdc2a80018
:104c6000cdc2a9001e4078000080fa0000000600b6
:104c70000400fa0020479800b2ff07000000eb0094
:104c8000000f780016003700cdc2a9002e4090001a
:104c90008000fb00720020001e0051000088de0032
:104ca0000040780061406000614060006140600049
:104cb0000080fb00610060004d00dd006116800097
:104cc00001d0a1000100700060168800cdc2a800cc
:104cd0000000000000000000000000001e0fe800bf
:104ce0001e007800e70f5000e7ff3400cdc2a90096
:104cf00090ff070000000000511680000000220015
:104d0000008060000000e000fbff3a00cdc2a80078
:104d1000cdc2a90000000000511680000000220052
:104d2000008060000000e000fbff32000080fa001d
:104d3000000006000200fa007eff07005116800006
:104d400000002200008060000000e00002003a0045
:104d500010002000170037000000eb00000f780063
:104d60000e00370010c0b300f10f20001e017800c4
:104d7000810f510001003c000040eb001e0fe800d5
:104d80000004e0000200320010002000090037009b
:104d900020ff2800010020001603070051168000a4
:104da00000002200008060000000e000edff3a00fb
:104db0000000eb000080fa00000006000600fa0088
:104dc0004047980079ff07004e409000a8ff070079
:104dd000d8ff07000000e000020032000080eb0076
:104de0000e0037007cff0700004f78007aff0700b5
:104df0001047980078ff07009e80fb00f00f20000e
:104e00000088b900800078001e4090000080fb0000
:104e100000804000100798001e0090000080fa00fb
:104e2000000006000e00fa0028c8bf00e3ff0700dc
:104e3000000f78001e007800e10f400002003a00e9
:104e40006000b80015003700a0992900e1212c006e
:104e50001007980021079800a0702d0031c2230090
:104e600030079800410798001e0078008000eb0092
:104e700071ef07003e019000ce019000c3ef0700e4
:104e80001e019000ae019000e8ee07005007980068
:104e9000610798005e009000ee0090000080fa002c
:104ea000000006001200fa00889fbe008a9fbe0024
:104eb00029c8bf00c1ff0700000f78001e0078005e
:104ec000e10f400002003a006000b8002a003700fd
:104ed00050ec2f0021002c001007980021079800ab
:104ee000d02b250061d1230030079800410798009e
:104ef000604f2200615d2b00500798006107980009
:104f00001e0078008000eb004bef07003e01900090
:104f1000ce0190009def07001e019000ae019000b1
:104f2000c2ee07000004be001e0078008000eb0007
:104f300041ef07005e019000ee01900093ef070043
:104f40000005be001e0078008000eb003aef07006d
:104f50000001be000a00be008cef07000001be0089
:104f60000800be00b1ee070070079800010f98001e
:104f70007e0090008e0890004f05be004f04be00da
:104f80000080fa00000006000000fa00c180200046
:104f900080802000d7000700404080005140800002
:104fa0006011b800020007000080fa00000006004f
:104fb0001000fa00889fbe00400798005107980033
:104fc000620798007307980010418000214180001b
:104fd0004e019000de01900093ee0700200798003c
:104fe00031079800f0408000014180002e019000c0
:104ff000be01900065ef07000004be000040800085
:10500000114080006e019000fe0190005fef0700ec
:105010000001be000800be0084ee0700008fbe0045
:1050200018c0b3006011b8001e00be00dcee07001f
:105030000000e000010035000044eb000804e0003f
:10504000020032006000b800008fbe0002002000a5
:10505000031224001e00be004cef0700d2ee070032
:10506000000078004f04be000080fa000000060037
:105070000a00fa0030079800410798000000eb0092
:10508000200798006000b800008fbe000000eb0011
:10509000200798001100370014418000254180004e
:1050a0002e0090004200dd00be0090000080400015
:1050b0001000be000001be000400be005aee070052
:1050c0000001be001e00be0058ee0700008fbe00ab
:1050d0004e0090000000e800400798004e0090004d
:1050e0008000e9002e009000808f5000eaff3c0015
:1050f0001e00be000080fa00000006000a00fa0050
:1051000030079800410798006000b800008fbe008b
:105110000000eb00200798000000eb00200798003b
:105120000c0037002e0090004200dd00be00900011
:10513000008040001000be000001be001e00be0046
:105140003aee0700008fbe002e0090000000e8003d
:10515000200798004e0090008000e9002e0090008b
:10516000808f5000efff3c001e00be000080fa0060
:10517000000006000400fa00008fbe001e01be0001
:1051800012418800234188000080fa0000000600d8
:105190000000fa0010418000214180000080fa00e8
:1051a000000006000c00fa00008fbe0022079800e5
:1051b0003307980044079800550798001e01be0069
:1051c000f2408800034188002e019000be0190004b
:1051d00002408800134088004e019000de019000dc
:1051e00022408800334088000080fa00000006005a
:1051f0000600fa00000f78001107980022079800b7
:10520000f0408000014180001e0178000089be004e
:1052100000408000114080001e0190000089be0007
:1052200020408000314080002e0190000089be00a7
:105230000080fa00000006000000fa003041800003
:105240000080fa00000006000200fa00000f78005b
:105250009e007800314188000080fa0000000600be
:105260000800fa00008fbe0022079800330798005c
:10527000c0418000c200dd0040842000008040006a
:105280003e1878002e107800c0418000c200dd007a
:10529000409c2000008040002e019000be01900044
:1052a0000288be00c04180000000e800c0418800c4
:1052b000c141800000062000800178001100090033
:1052c0008300d8008000fd00c0418800c0418000fc
:1052d0000000e00002003a0010002000b041880009
:1052e000a04180000000e800a04188000080fa0092
:1052f000000006000400fa00000f78001107980073
:10530000a04180000000e00002003a000000eb0035
:1053100020003700c04180000000e0000c003a008f
:10532000b04180000000e00009003200004e800023
:10533000114e80001e0178000089be00005a8000d6
:10534000115a80001e0190000089be001000370035
:10535000c04180000000e900c200dd004084200060
:10536000008040001000be001e0178000089be00d1
:10537000c04180000000e900c200dd00409c200028
:10538000008040001000be001e0190000089be0099
:10539000100020000080fa00000006001000fa0053
:1053a0005007980061079800720798000f01780075
:1053b0000f00780080017800fe009000a04180007e
:1053c000808f5000020036000000eb0055003700cf
:1053d0000000eb00000f78000000eb0010079800c1
:1053e0007e0090008000e900310798000000400036
:1053f0000000e8000000e8000000d100800040004c
:105400000f007800818747000000e8000000d1000d
:1054100000004000400798000000eb0020079800c3
:10542000c04180000000e00003003a00f0052000c9
:105430002007980003003700c04180000000e90009
:1054400020079800ae009000010f78000e00370092
:105450001e0078000000e00002003a00f005200085
:10546000000f7800ce0090001e0090000000400069
:10547000008040001e0878001e0090000000e80038
:10548000100798001e0fe9009e0090007e0090001b
:10549000808f5000eeff35000000eb00000f780019
:1054a0001b0037001e0078004200dd00de00900087
:1054b00000824000ce0090001e00780000004000f6
:1054c00061007800c200dd004084200000804000c0
:1054d0001000be00008abe001e0078004200dd0001
:1054e000ee00900000824000ce0090001e00780088
:1054f0000000400061007800c200dd00409c2000f8
:10550000008040001000be00008abe001e0fe800b0
:105510007e0090009e007800808f5000e1ff3500f3
:105520001000200083077800820778000080fa00ce
:045530000000060071
:020000040000fa
:105534003a080000040000000000000028080000f1
:10554400060000000200000003050700061e00001c
:10555400440b000080000000000000001008000060
:105564000e000000000000004208000002000000dd
:105574000200000001000000ac0c00001a00000052
:10558400000000002e0800000600000000000000db
:105594003e08000004000000020000000300720046
:1055a40000000000440800000003000000000000a8
